{
  "contractName": "PurpleButterfly",
  "abi": [
    {
      "inputs": [],
      "stateMutability": "nonpayable",
      "type": "constructor"
    },
    {
      "anonymous": false,
      "inputs": [
        {
          "indexed": true,
          "internalType": "address",
          "name": "owner",
          "type": "address"
        },
        {
          "indexed": true,
          "internalType": "address",
          "name": "approved",
          "type": "address"
        },
        {
          "indexed": true,
          "internalType": "uint256",
          "name": "tokenId",
          "type": "uint256"
        }
      ],
      "name": "Approval",
      "type": "event"
    },
    {
      "anonymous": false,
      "inputs": [
        {
          "indexed": true,
          "internalType": "address",
          "name": "owner",
          "type": "address"
        },
        {
          "indexed": true,
          "internalType": "address",
          "name": "operator",
          "type": "address"
        },
        {
          "indexed": false,
          "internalType": "bool",
          "name": "approved",
          "type": "bool"
        }
      ],
      "name": "ApprovalForAll",
      "type": "event"
    },
    {
      "anonymous": false,
      "inputs": [
        {
          "indexed": true,
          "internalType": "uint256",
          "name": "tokenId",
          "type": "uint256"
        },
        {
          "indexed": true,
          "internalType": "address",
          "name": "liker",
          "type": "address"
        }
      ],
      "name": "ContentLiked",
      "type": "event"
    },
    {
      "anonymous": false,
      "inputs": [
        {
          "indexed": false,
          "internalType": "uint256",
          "name": "tokenId",
          "type": "uint256"
        },
        {
          "indexed": false,
          "internalType": "address",
          "name": "owner",
          "type": "address"
        },
        {
          "indexed": false,
          "internalType": "string",
          "name": "content",
          "type": "string"
        }
      ],
      "name": "PostMinted",
      "type": "event"
    },
    {
      "anonymous": false,
      "inputs": [
        {
          "indexed": true,
          "internalType": "bytes32",
          "name": "role",
          "type": "bytes32"
        },
        {
          "indexed": true,
          "internalType": "bytes32",
          "name": "previousAdminRole",
          "type": "bytes32"
        },
        {
          "indexed": true,
          "internalType": "bytes32",
          "name": "newAdminRole",
          "type": "bytes32"
        }
      ],
      "name": "RoleAdminChanged",
      "type": "event"
    },
    {
      "anonymous": false,
      "inputs": [
        {
          "indexed": true,
          "internalType": "bytes32",
          "name": "role",
          "type": "bytes32"
        },
        {
          "indexed": true,
          "internalType": "address",
          "name": "account",
          "type": "address"
        },
        {
          "indexed": true,
          "internalType": "address",
          "name": "sender",
          "type": "address"
        }
      ],
      "name": "RoleGranted",
      "type": "event"
    },
    {
      "anonymous": false,
      "inputs": [
        {
          "indexed": true,
          "internalType": "bytes32",
          "name": "role",
          "type": "bytes32"
        },
        {
          "indexed": true,
          "internalType": "address",
          "name": "account",
          "type": "address"
        },
        {
          "indexed": true,
          "internalType": "address",
          "name": "sender",
          "type": "address"
        }
      ],
      "name": "RoleRevoked",
      "type": "event"
    },
    {
      "anonymous": false,
      "inputs": [
        {
          "indexed": true,
          "internalType": "address",
          "name": "from",
          "type": "address"
        },
        {
          "indexed": true,
          "internalType": "address",
          "name": "to",
          "type": "address"
        },
        {
          "indexed": true,
          "internalType": "uint256",
          "name": "tokenId",
          "type": "uint256"
        }
      ],
      "name": "Transfer",
      "type": "event"
    },
    {
      "inputs": [],
      "name": "BURNER_ROLE",
      "outputs": [
        {
          "internalType": "bytes32",
          "name": "",
          "type": "bytes32"
        }
      ],
      "stateMutability": "view",
      "type": "function",
      "constant": true
    },
    {
      "inputs": [],
      "name": "DEFAULT_ADMIN_ROLE",
      "outputs": [
        {
          "internalType": "bytes32",
          "name": "",
          "type": "bytes32"
        }
      ],
      "stateMutability": "view",
      "type": "function",
      "constant": true
    },
    {
      "inputs": [],
      "name": "MINTER_ROLE",
      "outputs": [
        {
          "internalType": "bytes32",
          "name": "",
          "type": "bytes32"
        }
      ],
      "stateMutability": "view",
      "type": "function",
      "constant": true
    },
    {
      "inputs": [
        {
          "internalType": "address",
          "name": "to",
          "type": "address"
        },
        {
          "internalType": "uint256",
          "name": "tokenId",
          "type": "uint256"
        }
      ],
      "name": "approve",
      "outputs": [],
      "stateMutability": "nonpayable",
      "type": "function"
    },
    {
      "inputs": [
        {
          "internalType": "address",
          "name": "owner",
          "type": "address"
        }
      ],
      "name": "balanceOf",
      "outputs": [
        {
          "internalType": "uint256",
          "name": "",
          "type": "uint256"
        }
      ],
      "stateMutability": "view",
      "type": "function",
      "constant": true
    },
    {
      "inputs": [
        {
          "internalType": "uint256",
          "name": "tokenId",
          "type": "uint256"
        }
      ],
      "name": "burn",
      "outputs": [],
      "stateMutability": "nonpayable",
      "type": "function"
    },
    {
      "inputs": [
        {
          "internalType": "uint256",
          "name": "tokenId",
          "type": "uint256"
        }
      ],
      "name": "getApproved",
      "outputs": [
        {
          "internalType": "address",
          "name": "",
          "type": "address"
        }
      ],
      "stateMutability": "view",
      "type": "function",
      "constant": true
    },
    {
      "inputs": [
        {
          "internalType": "bytes32",
          "name": "role",
          "type": "bytes32"
        }
      ],
      "name": "getRoleAdmin",
      "outputs": [
        {
          "internalType": "bytes32",
          "name": "",
          "type": "bytes32"
        }
      ],
      "stateMutability": "view",
      "type": "function",
      "constant": true
    },
    {
      "inputs": [
        {
          "internalType": "bytes32",
          "name": "role",
          "type": "bytes32"
        },
        {
          "internalType": "address",
          "name": "account",
          "type": "address"
        }
      ],
      "name": "grantRole",
      "outputs": [],
      "stateMutability": "nonpayable",
      "type": "function"
    },
    {
      "inputs": [
        {
          "internalType": "bytes32",
          "name": "role",
          "type": "bytes32"
        },
        {
          "internalType": "address",
          "name": "account",
          "type": "address"
        }
      ],
      "name": "hasRole",
      "outputs": [
        {
          "internalType": "bool",
          "name": "",
          "type": "bool"
        }
      ],
      "stateMutability": "view",
      "type": "function",
      "constant": true
    },
    {
      "inputs": [
        {
          "internalType": "address",
          "name": "owner",
          "type": "address"
        },
        {
          "internalType": "address",
          "name": "operator",
          "type": "address"
        }
      ],
      "name": "isApprovedForAll",
      "outputs": [
        {
          "internalType": "bool",
          "name": "",
          "type": "bool"
        }
      ],
      "stateMutability": "view",
      "type": "function",
      "constant": true
    },
    {
      "inputs": [],
      "name": "name",
      "outputs": [
        {
          "internalType": "string",
          "name": "",
          "type": "string"
        }
      ],
      "stateMutability": "view",
      "type": "function",
      "constant": true
    },
    {
      "inputs": [
        {
          "internalType": "uint256",
          "name": "tokenId",
          "type": "uint256"
        }
      ],
      "name": "ownerOf",
      "outputs": [
        {
          "internalType": "address",
          "name": "",
          "type": "address"
        }
      ],
      "stateMutability": "view",
      "type": "function",
      "constant": true
    },
    {
      "inputs": [
        {
          "internalType": "bytes32",
          "name": "role",
          "type": "bytes32"
        },
        {
          "internalType": "address",
          "name": "account",
          "type": "address"
        }
      ],
      "name": "renounceRole",
      "outputs": [],
      "stateMutability": "nonpayable",
      "type": "function"
    },
    {
      "inputs": [
        {
          "internalType": "bytes32",
          "name": "role",
          "type": "bytes32"
        },
        {
          "internalType": "address",
          "name": "account",
          "type": "address"
        }
      ],
      "name": "revokeRole",
      "outputs": [],
      "stateMutability": "nonpayable",
      "type": "function"
    },
    {
      "inputs": [
        {
          "internalType": "address",
          "name": "from",
          "type": "address"
        },
        {
          "internalType": "address",
          "name": "to",
          "type": "address"
        },
        {
          "internalType": "uint256",
          "name": "tokenId",
          "type": "uint256"
        }
      ],
      "name": "safeTransferFrom",
      "outputs": [],
      "stateMutability": "nonpayable",
      "type": "function"
    },
    {
      "inputs": [
        {
          "internalType": "address",
          "name": "from",
          "type": "address"
        },
        {
          "internalType": "address",
          "name": "to",
          "type": "address"
        },
        {
          "internalType": "uint256",
          "name": "tokenId",
          "type": "uint256"
        },
        {
          "internalType": "bytes",
          "name": "data",
          "type": "bytes"
        }
      ],
      "name": "safeTransferFrom",
      "outputs": [],
      "stateMutability": "nonpayable",
      "type": "function"
    },
    {
      "inputs": [
        {
          "internalType": "address",
          "name": "operator",
          "type": "address"
        },
        {
          "internalType": "bool",
          "name": "approved",
          "type": "bool"
        }
      ],
      "name": "setApprovalForAll",
      "outputs": [],
      "stateMutability": "nonpayable",
      "type": "function"
    },
    {
      "inputs": [],
      "name": "symbol",
      "outputs": [
        {
          "internalType": "string",
          "name": "",
          "type": "string"
        }
      ],
      "stateMutability": "view",
      "type": "function",
      "constant": true
    },
    {
      "inputs": [
        {
          "internalType": "uint256",
          "name": "tokenId",
          "type": "uint256"
        }
      ],
      "name": "tokenURI",
      "outputs": [
        {
          "internalType": "string",
          "name": "",
          "type": "string"
        }
      ],
      "stateMutability": "view",
      "type": "function",
      "constant": true
    },
    {
      "inputs": [
        {
          "internalType": "address",
          "name": "from",
          "type": "address"
        },
        {
          "internalType": "address",
          "name": "to",
          "type": "address"
        },
        {
          "internalType": "uint256",
          "name": "tokenId",
          "type": "uint256"
        }
      ],
      "name": "transferFrom",
      "outputs": [],
      "stateMutability": "nonpayable",
      "type": "function"
    },
    {
      "inputs": [],
      "name": "getTokenAddress",
      "outputs": [
        {
          "internalType": "address",
          "name": "",
          "type": "address"
        }
      ],
      "stateMutability": "view",
      "type": "function",
      "constant": true
    },
    {
      "inputs": [
        {
          "internalType": "address",
          "name": "tokenAddress",
          "type": "address"
        }
      ],
      "name": "setTokenAddress",
      "outputs": [],
      "stateMutability": "nonpayable",
      "type": "function"
    },
    {
      "inputs": [
        {
          "internalType": "string",
          "name": "content",
          "type": "string"
        },
        {
          "internalType": "bytes",
          "name": "signature",
          "type": "bytes"
        },
        {
          "internalType": "uint256",
          "name": "tokenId",
          "type": "uint256"
        }
      ],
      "name": "mintPost",
      "outputs": [],
      "stateMutability": "payable",
      "type": "function",
      "payable": true
    },
    {
      "inputs": [
        {
          "internalType": "uint256",
          "name": "tokenId",
          "type": "uint256"
        },
        {
          "internalType": "bytes",
          "name": "signature",
          "type": "bytes"
        }
      ],
      "name": "verifySignature",
      "outputs": [
        {
          "internalType": "bool",
          "name": "",
          "type": "bool"
        }
      ],
      "stateMutability": "view",
      "type": "function",
      "constant": true
    },
    {
      "inputs": [
        {
          "internalType": "uint256",
          "name": "tokenId",
          "type": "uint256"
        }
      ],
      "name": "likeContent",
      "outputs": [],
      "stateMutability": "nonpayable",
      "type": "function"
    },
    {
      "inputs": [
        {
          "internalType": "bytes4",
          "name": "interfaceId",
          "type": "bytes4"
        }
      ],
      "name": "supportsInterface",
      "outputs": [
        {
          "internalType": "bool",
          "name": "",
          "type": "bool"
        }
      ],
      "stateMutability": "view",
      "type": "function",
      "constant": true
    }
  ],
  "bytecode": "0x60806040523480156200001157600080fd5b506040518060400160405280600f81526020017f507572706c65427574746572666c7900000000000000000000000000000000008152506040518060400160405280600581526020017f5042464c5900000000000000000000000000000000000000000000000000000081525081600090816200008f919062000502565b508060019081620000a1919062000502565b505050620000b96000801b336200012360201b60201c565b620000eb7f9f2df0fed2c77648de5860a4cc508cd0818c85b8b8a1ab4ceeef8d981c8956a6336200012360201b60201c565b6200011d7f3c11d16cbaffd01df69ce1c404f6340ee057498f5f00246190ea54220576a848336200012360201b60201c565b620005e9565b6200013582826200021560201b60201c565b620002115760016006600084815260200190815260200160002060000160008373ffffffffffffffffffffffffffffffffffffffff1673ffffffffffffffffffffffffffffffffffffffff16815260200190815260200160002060006101000a81548160ff021916908315150217905550620001b66200028060201b60201c565b73ffffffffffffffffffffffffffffffffffffffff168173ffffffffffffffffffffffffffffffffffffffff16837f2f8788117e7eff1d82e926ec794901d17c78024a50270940304540a733656f0d60405160405180910390a45b5050565b60006006600084815260200190815260200160002060000160008373ffffffffffffffffffffffffffffffffffffffff1673ffffffffffffffffffffffffffffffffffffffff16815260200190815260200160002060009054906101000a900460ff16905092915050565b600033905090565b600081519050919050565b7f4e487b7100000000000000000000000000000000000000000000000000000000600052604160045260246000fd5b7f4e487b7100000000000000000000000000000000000000000000000000000000600052602260045260246000fd5b600060028204905060018216806200030a57607f821691505b60208210810362000320576200031f620002c2565b5b50919050565b60008190508160005260206000209050919050565b60006020601f8301049050919050565b600082821b905092915050565b6000600883026200038a7fffffffffffffffffffffffffffffffffffffffffffffffffffffffffffffffff826200034b565b6200039686836200034b565b95508019841693508086168417925050509392505050565b6000819050919050565b6000819050919050565b6000620003e3620003dd620003d784620003ae565b620003b8565b620003ae565b9050919050565b6000819050919050565b620003ff83620003c2565b620004176200040e82620003ea565b84845462000358565b825550505050565b600090565b6200042e6200041f565b6200043b818484620003f4565b505050565b5b8181101562000463576200045760008262000424565b60018101905062000441565b5050565b601f821115620004b2576200047c8162000326565b62000487846200033b565b8101602085101562000497578190505b620004af620004a6856200033b565b83018262000440565b50505b505050565b600082821c905092915050565b6000620004d760001984600802620004b7565b1980831691505092915050565b6000620004f28383620004c4565b9150826002028217905092915050565b6200050d8262000288565b67ffffffffffffffff81111562000529576200052862000293565b5b620005358254620002f1565b6200054282828562000467565b600060209050601f8311600181146200057a576000841562000565578287015190505b620005718582620004e4565b865550620005e1565b601f1984166200058a8662000326565b60005b82811015620005b4578489015182556001820191506020850194506020810190506200058d565b86831015620005d45784890151620005d0601f891682620004c4565b8355505b6001600288020188555050505b505050505050565b61480080620005f96000396000f3fe60806040526004361061019c5760003560e01c806342966c68116100ec578063a217fddf1161008a578063c87b56dd11610064578063c87b56dd146105d9578063d539139314610616578063d547741f14610641578063e985e9c51461066a5761019c565b8063a217fddf1461055c578063a22cb46514610587578063b88d4fde146105b05761019c565b806370a08231116100c657806370a082311461047a57806372c53d9b146104b757806391d14854146104f457806395d89b41146105315761019c565b806342966c68146103eb5780635f37cd61146104145780636352211e1461043d5761019c565b806323b872dd11610159578063282c51f311610133578063282c51f3146103455780632f2ff15d1461037057806336568abe1461039957806342842e0e146103c25761019c565b806323b872dd146102b6578063248a9ca3146102df57806326a4e8d21461031c5761019c565b806301ffc9a7146101a157806306fdde03146101de578063081812fc14610209578063095ea7b3146102465780631097c9871461026f57806310fe9ae81461028b575b600080fd5b3480156101ad57600080fd5b506101c860048036038101906101c39190612d23565b6106a7565b6040516101d59190612d6b565b60405180910390f35b3480156101ea57600080fd5b506101f36106b9565b6040516102009190612e16565b60405180910390f35b34801561021557600080fd5b50610230600480360381019061022b9190612e6e565b61074b565b60405161023d9190612edc565b60405180910390f35b34801561025257600080fd5b5061026d60048036038101906102689190612f23565b610791565b005b61028960048036038101906102849190613139565b6108a8565b005b34801561029757600080fd5b506102a0610b46565b6040516102ad9190612edc565b60405180910390f35b3480156102c257600080fd5b506102dd60048036038101906102d891906131c4565b610b70565b005b3480156102eb57600080fd5b506103066004803603810190610301919061324d565b610bd0565b6040516103139190613289565b60405180910390f35b34801561032857600080fd5b50610343600480360381019061033e91906132a4565b610bf0565b005b34801561035157600080fd5b5061035a610c42565b6040516103679190613289565b60405180910390f35b34801561037c57600080fd5b50610397600480360381019061039291906132d1565b610c66565b005b3480156103a557600080fd5b506103c060048036038101906103bb91906132d1565b610c87565b005b3480156103ce57600080fd5b506103e960048036038101906103e491906131c4565b610d0a565b005b3480156103f757600080fd5b50610412600480360381019061040d9190612e6e565b610d2a565b005b34801561042057600080fd5b5061043b60048036038101906104369190612e6e565b610d86565b005b34801561044957600080fd5b50610464600480360381019061045f9190612e6e565b611035565b6040516104719190612edc565b60405180910390f35b34801561048657600080fd5b506104a1600480360381019061049c91906132a4565b6110bb565b6040516104ae9190613320565b60405180910390f35b3480156104c357600080fd5b506104de60048036038101906104d9919061333b565b611172565b6040516104eb9190612d6b565b60405180910390f35b34801561050057600080fd5b5061051b600480360381019061051691906132d1565b611246565b6040516105289190612d6b565b60405180910390f35b34801561053d57600080fd5b506105466112b1565b6040516105539190612e16565b60405180910390f35b34801561056857600080fd5b50610571611343565b60405161057e9190613289565b60405180910390f35b34801561059357600080fd5b506105ae60048036038101906105a991906133c3565b61134a565b005b3480156105bc57600080fd5b506105d760048036038101906105d29190613403565b611360565b005b3480156105e557600080fd5b5061060060048036038101906105fb9190612e6e565b6113c2565b60405161060d9190612e16565b60405180910390f35b34801561062257600080fd5b5061062b61142a565b6040516106389190613289565b60405180910390f35b34801561064d57600080fd5b50610668600480360381019061066391906132d1565b61144e565b005b34801561067657600080fd5b50610691600480360381019061068c9190613486565b61146f565b60405161069e9190612d6b565b60405180910390f35b60006106b282611503565b9050919050565b6060600080546106c8906134f5565b80601f01602080910402602001604051908101604052809291908181526020018280546106f4906134f5565b80156107415780601f1061071657610100808354040283529160200191610741565b820191906000526020600020905b81548152906001019060200180831161072457829003601f168201915b5050505050905090565b60006107568261157d565b6004600083815260200190815260200160002060009054906101000a900473ffffffffffffffffffffffffffffffffffffffff169050919050565b600061079c82611035565b90508073ffffffffffffffffffffffffffffffffffffffff168373ffffffffffffffffffffffffffffffffffffffff160361080c576040517f08c379a000000000000000000000000000000000000000000000000000000000815260040161080390613598565b60405180910390fd5b8073ffffffffffffffffffffffffffffffffffffffff1661082b6115c8565b73ffffffffffffffffffffffffffffffffffffffff16148061085a5750610859816108546115c8565b61146f565b5b610899576040517f08c379a00000000000000000000000000000000000000000000000000000000081526004016108909061362a565b60405180910390fd5b6108a383836115d0565b505050565b6108b181611689565b156108f1576040517f08c379a00000000000000000000000000000000000000000000000000000000081526004016108e890613696565b60405180910390fd5b670de0b6b3a7640000600760009054906101000a900473ffffffffffffffffffffffffffffffffffffffff1673ffffffffffffffffffffffffffffffffffffffff166370a082316109406115c8565b6040518263ffffffff1660e01b815260040161095c9190612edc565b602060405180830381865afa158015610979573d6000803e3d6000fd5b505050506040513d601f19601f8201168201806040525081019061099d91906136cb565b10156109de576040517f08c379a00000000000000000000000000000000000000000000000000000000081526004016109d590613744565b60405180910390fd5b6109e88183611172565b506109f333826116ca565b600760009054906101000a900473ffffffffffffffffffffffffffffffffffffffff1673ffffffffffffffffffffffffffffffffffffffff1663a9059cbb33670de0b6b3a76400006040518363ffffffff1660e01b8152600401610a589291906137a9565b6020604051808303816000875af1158015610a77573d6000803e3d6000fd5b505050506040513d601f19601f82011682018060405250810190610a9b91906137e7565b506040518060400160405280848152602001610ab56115c8565b73ffffffffffffffffffffffffffffffffffffffff16815250600860008381526020019081526020016000206000820151816000019081610af691906139b6565b5060208201518160010160006101000a81548173ffffffffffffffffffffffffffffffffffffffff021916908373ffffffffffffffffffffffffffffffffffffffff160217905550905050505050565b6000600760009054906101000a900473ffffffffffffffffffffffffffffffffffffffff16905090565b610b81610b7b6115c8565b826118e7565b610bc0576040517f08c379a0000000000000000000000000000000000000000000000000000000008152600401610bb790613afa565b60405180910390fd5b610bcb83838361197c565b505050565b600060066000838152602001908152602001600020600101549050919050565b6000801b610bfd81611c75565b81600760006101000a81548173ffffffffffffffffffffffffffffffffffffffff021916908373ffffffffffffffffffffffffffffffffffffffff1602179055505050565b7f3c11d16cbaffd01df69ce1c404f6340ee057498f5f00246190ea54220576a84881565b610c6f82610bd0565b610c7881611c75565b610c828383611c89565b505050565b610c8f6115c8565b73ffffffffffffffffffffffffffffffffffffffff168173ffffffffffffffffffffffffffffffffffffffff1614610cfc576040517f08c379a0000000000000000000000000000000000000000000000000000000008152600401610cf390613b8c565b60405180910390fd5b610d068282611d6a565b5050565b610d2583838360405180602001604052806000815250611360565b505050565b610d3b610d356115c8565b826118e7565b610d7a576040517f08c379a0000000000000000000000000000000000000000000000000000000008152600401610d7190613afa565b60405180910390fd5b610d8381611e4c565b50565b610d8f81611689565b610dce576040517f08c379a0000000000000000000000000000000000000000000000000000000008152600401610dc590613bf8565b60405180910390fd5b610dd781611035565b73ffffffffffffffffffffffffffffffffffffffff16610df56115c8565b73ffffffffffffffffffffffffffffffffffffffff1603610e4b576040517f08c379a0000000000000000000000000000000000000000000000000000000008152600401610e4290613c64565b60405180910390fd5b6000600760009054906101000a900473ffffffffffffffffffffffffffffffffffffffff1673ffffffffffffffffffffffffffffffffffffffff166370a08231610e936115c8565b6040518263ffffffff1660e01b8152600401610eaf9190612edc565b602060405180830381865afa158015610ecc573d6000803e3d6000fd5b505050506040513d601f19601f82011682018060405250810190610ef091906136cb565b11610f30576040517f08c379a0000000000000000000000000000000000000000000000000000000008152600401610f2790613cd0565b60405180910390fd5b6000610f3b82611035565b9050600760009054906101000a900473ffffffffffffffffffffffffffffffffffffffff1673ffffffffffffffffffffffffffffffffffffffff1663a9059cbb82670de0b6b3a76400006040518363ffffffff1660e01b8152600401610fa29291906137a9565b6020604051808303816000875af1158015610fc1573d6000803e3d6000fd5b505050506040513d601f19601f82011682018060405250810190610fe591906137e7565b50610fee6115c8565b73ffffffffffffffffffffffffffffffffffffffff16827fc1ee4ef2a83783b48695c42cb439eb134fc379f78e9e472af571a5a04b7cfdc960405160405180910390a35050565b60008061104183611f9a565b9050600073ffffffffffffffffffffffffffffffffffffffff168173ffffffffffffffffffffffffffffffffffffffff16036110b2576040517f08c379a00000000000000000000000000000000000000000000000000000000081526004016110a990613d3c565b60405180910390fd5b80915050919050565b60008073ffffffffffffffffffffffffffffffffffffffff168273ffffffffffffffffffffffffffffffffffffffff160361112b576040517f08c379a000000000000000000000000000000000000000000000000000000000815260040161112290613dce565b60405180910390fd5b600360008373ffffffffffffffffffffffffffffffffffffffff1673ffffffffffffffffffffffffffffffffffffffff168152602001908152602001600020549050919050565b600061117d83611689565b156111bd576040517f08c379a00000000000000000000000000000000000000000000000000000000081526004016111b490613e3a565b60405180910390fd5b60003090506000846040516020016111d59190613e7b565b604051602081830303815290604052805190602001209050600061120a856111fc84611fd7565b61200790919063ffffffff16565b90508273ffffffffffffffffffffffffffffffffffffffff168173ffffffffffffffffffffffffffffffffffffffff1614935050505092915050565b60006006600084815260200190815260200160002060000160008373ffffffffffffffffffffffffffffffffffffffff1673ffffffffffffffffffffffffffffffffffffffff16815260200190815260200160002060009054906101000a900460ff16905092915050565b6060600180546112c0906134f5565b80601f01602080910402602001604051908101604052809291908181526020018280546112ec906134f5565b80156113395780601f1061130e57610100808354040283529160200191611339565b820191906000526020600020905b81548152906001019060200180831161131c57829003601f168201915b5050505050905090565b6000801b81565b61135c6113556115c8565b838361202e565b5050565b61137161136b6115c8565b836118e7565b6113b0576040517f08c379a00000000000000000000000000000000000000000000000000000000081526004016113a790613afa565b60405180910390fd5b6113bc8484848461219a565b50505050565b60606113cd8261157d565b60006113d76121f6565b905060008151116113f75760405180602001604052806000815250611422565b806114018461220d565b604051602001611412929190613ed2565b6040516020818303038152906040525b915050919050565b7f9f2df0fed2c77648de5860a4cc508cd0818c85b8b8a1ab4ceeef8d981c8956a681565b61145782610bd0565b61146081611c75565b61146a8383611d6a565b505050565b6000600560008473ffffffffffffffffffffffffffffffffffffffff1673ffffffffffffffffffffffffffffffffffffffff16815260200190815260200160002060008373ffffffffffffffffffffffffffffffffffffffff1673ffffffffffffffffffffffffffffffffffffffff16815260200190815260200160002060009054906101000a900460ff16905092915050565b60007f7965db0b000000000000000000000000000000000000000000000000000000007bffffffffffffffffffffffffffffffffffffffffffffffffffffffff1916827bffffffffffffffffffffffffffffffffffffffffffffffffffffffff191614806115765750611575826122db565b5b9050919050565b61158681611689565b6115c5576040517f08c379a00000000000000000000000000000000000000000000000000000000081526004016115bc90613d3c565b60405180910390fd5b50565b600033905090565b816004600083815260200190815260200160002060006101000a81548173ffffffffffffffffffffffffffffffffffffffff021916908373ffffffffffffffffffffffffffffffffffffffff160217905550808273ffffffffffffffffffffffffffffffffffffffff1661164383611035565b73ffffffffffffffffffffffffffffffffffffffff167f8c5be1e5ebec7d5bd14f71427d1e84f3dd0314c0f7b2291e5b200ac8c7c3b92560405160405180910390a45050565b60008073ffffffffffffffffffffffffffffffffffffffff166116ab83611f9a565b73ffffffffffffffffffffffffffffffffffffffff1614159050919050565b600073ffffffffffffffffffffffffffffffffffffffff168273ffffffffffffffffffffffffffffffffffffffff1603611739576040517f08c379a000000000000000000000000000000000000000000000000000000000815260040161173090613f42565b60405180910390fd5b61174281611689565b15611782576040517f08c379a000000000000000000000000000000000000000000000000000000000815260040161177990613fae565b60405180910390fd5b6117906000838360016123bd565b61179981611689565b156117d9576040517f08c379a00000000000000000000000000000000000000000000000000000000081526004016117d090613fae565b60405180910390fd5b6001600360008473ffffffffffffffffffffffffffffffffffffffff1673ffffffffffffffffffffffffffffffffffffffff16815260200190815260200160002060008282540192505081905550816002600083815260200190815260200160002060006101000a81548173ffffffffffffffffffffffffffffffffffffffff021916908373ffffffffffffffffffffffffffffffffffffffff160217905550808273ffffffffffffffffffffffffffffffffffffffff16600073ffffffffffffffffffffffffffffffffffffffff167fddf252ad1be2c89b69c2b068fc378daa952ba7f163c4a11628f55a4df523b3ef60405160405180910390a46118e36000838360016123c3565b5050565b6000806118f383611035565b90508073ffffffffffffffffffffffffffffffffffffffff168473ffffffffffffffffffffffffffffffffffffffff1614806119355750611934818561146f565b5b8061197357508373ffffffffffffffffffffffffffffffffffffffff1661195b8461074b565b73ffffffffffffffffffffffffffffffffffffffff16145b91505092915050565b8273ffffffffffffffffffffffffffffffffffffffff1661199c82611035565b73ffffffffffffffffffffffffffffffffffffffff16146119f2576040517f08c379a00000000000000000000000000000000000000000000000000000000081526004016119e990614040565b60405180910390fd5b600073ffffffffffffffffffffffffffffffffffffffff168273ffffffffffffffffffffffffffffffffffffffff1603611a61576040517f08c379a0000000000000000000000000000000000000000000000000000000008152600401611a58906140d2565b60405180910390fd5b611a6e83838360016123bd565b8273ffffffffffffffffffffffffffffffffffffffff16611a8e82611035565b73ffffffffffffffffffffffffffffffffffffffff1614611ae4576040517f08c379a0000000000000000000000000000000000000000000000000000000008152600401611adb90614040565b60405180910390fd5b6004600082815260200190815260200160002060006101000a81549073ffffffffffffffffffffffffffffffffffffffff02191690556001600360008573ffffffffffffffffffffffffffffffffffffffff1673ffffffffffffffffffffffffffffffffffffffff168152602001908152602001600020600082825403925050819055506001600360008473ffffffffffffffffffffffffffffffffffffffff1673ffffffffffffffffffffffffffffffffffffffff16815260200190815260200160002060008282540192505081905550816002600083815260200190815260200160002060006101000a81548173ffffffffffffffffffffffffffffffffffffffff021916908373ffffffffffffffffffffffffffffffffffffffff160217905550808273ffffffffffffffffffffffffffffffffffffffff168473ffffffffffffffffffffffffffffffffffffffff167fddf252ad1be2c89b69c2b068fc378daa952ba7f163c4a11628f55a4df523b3ef60405160405180910390a4611c7083838360016123c3565b505050565b611c8681611c816115c8565b6123c9565b50565b611c938282611246565b611d665760016006600084815260200190815260200160002060000160008373ffffffffffffffffffffffffffffffffffffffff1673ffffffffffffffffffffffffffffffffffffffff16815260200190815260200160002060006101000a81548160ff021916908315150217905550611d0b6115c8565b73ffffffffffffffffffffffffffffffffffffffff168173ffffffffffffffffffffffffffffffffffffffff16837f2f8788117e7eff1d82e926ec794901d17c78024a50270940304540a733656f0d60405160405180910390a45b5050565b611d748282611246565b15611e485760006006600084815260200190815260200160002060000160008373ffffffffffffffffffffffffffffffffffffffff1673ffffffffffffffffffffffffffffffffffffffff16815260200190815260200160002060006101000a81548160ff021916908315150217905550611ded6115c8565b73ffffffffffffffffffffffffffffffffffffffff168173ffffffffffffffffffffffffffffffffffffffff16837ff6391f5c32d9c69d2a47ea670b442974b53935d1edc7fd64eb21e047a839171b60405160405180910390a45b5050565b6000611e5782611035565b9050611e678160008460016123bd565b611e7082611035565b90506004600083815260200190815260200160002060006101000a81549073ffffffffffffffffffffffffffffffffffffffff02191690556001600360008373ffffffffffffffffffffffffffffffffffffffff1673ffffffffffffffffffffffffffffffffffffffff168152602001908152602001600020600082825403925050819055506002600083815260200190815260200160002060006101000a81549073ffffffffffffffffffffffffffffffffffffffff021916905581600073ffffffffffffffffffffffffffffffffffffffff168273ffffffffffffffffffffffffffffffffffffffff167fddf252ad1be2c89b69c2b068fc378daa952ba7f163c4a11628f55a4df523b3ef60405160405180910390a4611f968160008460016123c3565b5050565b60006002600083815260200190815260200160002060009054906101000a900473ffffffffffffffffffffffffffffffffffffffff169050919050565b600081604051602001611fea919061415f565b604051602081830303815290604052805190602001209050919050565b6000806000612016858561244e565b915091506120238161249f565b819250505092915050565b8173ffffffffffffffffffffffffffffffffffffffff168373ffffffffffffffffffffffffffffffffffffffff160361209c576040517f08c379a0000000000000000000000000000000000000000000000000000000008152600401612093906141d1565b60405180910390fd5b80600560008573ffffffffffffffffffffffffffffffffffffffff1673ffffffffffffffffffffffffffffffffffffffff16815260200190815260200160002060008473ffffffffffffffffffffffffffffffffffffffff1673ffffffffffffffffffffffffffffffffffffffff16815260200190815260200160002060006101000a81548160ff0219169083151502179055508173ffffffffffffffffffffffffffffffffffffffff168373ffffffffffffffffffffffffffffffffffffffff167f17307eab39ab6107e8899845ad3d59bd9653f200f220920489ca2b5937696c318360405161218d9190612d6b565b60405180910390a3505050565b6121a584848461197c565b6121b184848484612605565b6121f0576040517f08c379a00000000000000000000000000000000000000000000000000000000081526004016121e790614263565b60405180910390fd5b50505050565b606060405180602001604052806000815250905090565b60606000600161221c8461278c565b01905060008167ffffffffffffffff81111561223b5761223a612f6d565b5b6040519080825280601f01601f19166020018201604052801561226d5781602001600182028036833780820191505090505b509050600082602001820190505b6001156122d0578080600190039150507f3031323334353637383961626364656600000000000000000000000000000000600a86061a8153600a85816122c4576122c3614283565b5b0494506000850361227b575b819350505050919050565b60007f80ac58cd000000000000000000000000000000000000000000000000000000007bffffffffffffffffffffffffffffffffffffffffffffffffffffffff1916827bffffffffffffffffffffffffffffffffffffffffffffffffffffffff191614806123a657507f5b5e139f000000000000000000000000000000000000000000000000000000007bffffffffffffffffffffffffffffffffffffffffffffffffffffffff1916827bffffffffffffffffffffffffffffffffffffffffffffffffffffffff1916145b806123b657506123b5826128df565b5b9050919050565b50505050565b50505050565b6123d38282611246565b61244a576123e081612949565b6123ee8360001c6020612976565b6040516020016123ff92919061434a565b6040516020818303038152906040526040517f08c379a00000000000000000000000000000000000000000000000000000000081526004016124419190612e16565b60405180910390fd5b5050565b600080604183510361248f5760008060006020860151925060408601519150606086015160001a905061248387828585612bb2565b94509450505050612498565b60006002915091505b9250929050565b600060048111156124b3576124b2614384565b5b8160048111156124c6576124c5614384565b5b031561260257600160048111156124e0576124df614384565b5b8160048111156124f3576124f2614384565b5b03612533576040517f08c379a000000000000000000000000000000000000000000000000000000000815260040161252a906143ff565b60405180910390fd5b6002600481111561254757612546614384565b5b81600481111561255a57612559614384565b5b0361259a576040517f08c379a00000000000000000000000000000000000000000000000000000000081526004016125919061446b565b60405180910390fd5b600360048111156125ae576125ad614384565b5b8160048111156125c1576125c0614384565b5b03612601576040517f08c379a00000000000000000000000000000000000000000000000000000000081526004016125f8906144fd565b60405180910390fd5b5b50565b60006126268473ffffffffffffffffffffffffffffffffffffffff16612c94565b1561277f578373ffffffffffffffffffffffffffffffffffffffff1663150b7a0261264f6115c8565b8786866040518563ffffffff1660e01b81526004016126719493929190614572565b6020604051808303816000875af19250505080156126ad57506040513d601f19601f820116820180604052508101906126aa91906145d3565b60015b61272f573d80600081146126dd576040519150601f19603f3d011682016040523d82523d6000602084013e6126e2565b606091505b506000815103612727576040517f08c379a000000000000000000000000000000000000000000000000000000000815260040161271e90614263565b60405180910390fd5b805181602001fd5b63150b7a0260e01b7bffffffffffffffffffffffffffffffffffffffffffffffffffffffff1916817bffffffffffffffffffffffffffffffffffffffffffffffffffffffff191614915050612784565b600190505b949350505050565b600080600090507a184f03e93ff9f4daa797ed6e38ed64bf6a1f01000000000000000083106127ea577a184f03e93ff9f4daa797ed6e38ed64bf6a1f01000000000000000083816127e0576127df614283565b5b0492506040810190505b6d04ee2d6d415b85acef81000000008310612827576d04ee2d6d415b85acef8100000000838161281d5761281c614283565b5b0492506020810190505b662386f26fc10000831061285657662386f26fc10000838161284c5761284b614283565b5b0492506010810190505b6305f5e100831061287f576305f5e100838161287557612874614283565b5b0492506008810190505b61271083106128a457612710838161289a57612899614283565b5b0492506004810190505b606483106128c757606483816128bd576128bc614283565b5b0492506002810190505b600a83106128d6576001810190505b80915050919050565b60007f01ffc9a7000000000000000000000000000000000000000000000000000000007bffffffffffffffffffffffffffffffffffffffffffffffffffffffff1916827bffffffffffffffffffffffffffffffffffffffffffffffffffffffff1916149050919050565b606061296f8273ffffffffffffffffffffffffffffffffffffffff16601460ff16612976565b9050919050565b606060006002836002612989919061462f565b6129939190614671565b67ffffffffffffffff8111156129ac576129ab612f6d565b5b6040519080825280601f01601f1916602001820160405280156129de5781602001600182028036833780820191505090505b5090507f300000000000000000000000000000000000000000000000000000000000000081600081518110612a1657612a156146a5565b5b60200101907effffffffffffffffffffffffffffffffffffffffffffffffffffffffffffff1916908160001a9053507f780000000000000000000000000000000000000000000000000000000000000081600181518110612a7a57612a796146a5565b5b60200101907effffffffffffffffffffffffffffffffffffffffffffffffffffffffffffff1916908160001a90535060006001846002612aba919061462f565b612ac49190614671565b90505b6001811115612b64577f3031323334353637383961626364656600000000000000000000000000000000600f861660108110612b0657612b056146a5565b5b1a60f81b828281518110612b1d57612b1c6146a5565b5b60200101907effffffffffffffffffffffffffffffffffffffffffffffffffffffffffffff1916908160001a905350600485901c945080612b5d906146d4565b9050612ac7565b5060008414612ba8576040517f08c379a0000000000000000000000000000000000000000000000000000000008152600401612b9f90614749565b60405180910390fd5b8091505092915050565b6000807f7fffffffffffffffffffffffffffffff5d576e7357a4501ddfe92f46681b20a08360001c1115612bed576000600391509150612c8b565b600060018787878760405160008152602001604052604051612c129493929190614785565b6020604051602081039080840390855afa158015612c34573d6000803e3d6000fd5b505050602060405103519050600073ffffffffffffffffffffffffffffffffffffffff168173ffffffffffffffffffffffffffffffffffffffff1603612c8257600060019250925050612c8b565b80600092509250505b94509492505050565b6000808273ffffffffffffffffffffffffffffffffffffffff163b119050919050565b6000604051905090565b600080fd5b600080fd5b60007fffffffff0000000000000000000000000000000000000000000000000000000082169050919050565b612d0081612ccb565b8114612d0b57600080fd5b50565b600081359050612d1d81612cf7565b92915050565b600060208284031215612d3957612d38612cc1565b5b6000612d4784828501612d0e565b91505092915050565b60008115159050919050565b612d6581612d50565b82525050565b6000602082019050612d806000830184612d5c565b92915050565b600081519050919050565b600082825260208201905092915050565b60005b83811015612dc0578082015181840152602081019050612da5565b60008484015250505050565b6000601f19601f8301169050919050565b6000612de882612d86565b612df28185612d91565b9350612e02818560208601612da2565b612e0b81612dcc565b840191505092915050565b60006020820190508181036000830152612e308184612ddd565b905092915050565b6000819050919050565b612e4b81612e38565b8114612e5657600080fd5b50565b600081359050612e6881612e42565b92915050565b600060208284031215612e8457612e83612cc1565b5b6000612e9284828501612e59565b91505092915050565b600073ffffffffffffffffffffffffffffffffffffffff82169050919050565b6000612ec682612e9b565b9050919050565b612ed681612ebb565b82525050565b6000602082019050612ef16000830184612ecd565b92915050565b612f0081612ebb565b8114612f0b57600080fd5b50565b600081359050612f1d81612ef7565b92915050565b60008060408385031215612f3a57612f39612cc1565b5b6000612f4885828601612f0e565b9250506020612f5985828601612e59565b9150509250929050565b600080fd5b600080fd5b7f4e487b7100000000000000000000000000000000000000000000000000000000600052604160045260246000fd5b612fa582612dcc565b810181811067ffffffffffffffff82111715612fc457612fc3612f6d565b5b80604052505050565b6000612fd7612cb7565b9050612fe38282612f9c565b919050565b600067ffffffffffffffff82111561300357613002612f6d565b5b61300c82612dcc565b9050602081019050919050565b82818337600083830152505050565b600061303b61303684612fe8565b612fcd565b90508281526020810184848401111561305757613056612f68565b5b613062848285613019565b509392505050565b600082601f83011261307f5761307e612f63565b5b813561308f848260208601613028565b91505092915050565b600067ffffffffffffffff8211156130b3576130b2612f6d565b5b6130bc82612dcc565b9050602081019050919050565b60006130dc6130d784613098565b612fcd565b9050828152602081018484840111156130f8576130f7612f68565b5b613103848285613019565b509392505050565b600082601f8301126131205761311f612f63565b5b81356131308482602086016130c9565b91505092915050565b60008060006060848603121561315257613151612cc1565b5b600084013567ffffffffffffffff8111156131705761316f612cc6565b5b61317c8682870161306a565b935050602084013567ffffffffffffffff81111561319d5761319c612cc6565b5b6131a98682870161310b565b92505060406131ba86828701612e59565b9150509250925092565b6000806000606084860312156131dd576131dc612cc1565b5b60006131eb86828701612f0e565b93505060206131fc86828701612f0e565b925050604061320d86828701612e59565b9150509250925092565b6000819050919050565b61322a81613217565b811461323557600080fd5b50565b60008135905061324781613221565b92915050565b60006020828403121561326357613262612cc1565b5b600061327184828501613238565b91505092915050565b61328381613217565b82525050565b600060208201905061329e600083018461327a565b92915050565b6000602082840312156132ba576132b9612cc1565b5b60006132c884828501612f0e565b91505092915050565b600080604083850312156132e8576132e7612cc1565b5b60006132f685828601613238565b925050602061330785828601612f0e565b9150509250929050565b61331a81612e38565b82525050565b60006020820190506133356000830184613311565b92915050565b6000806040838503121561335257613351612cc1565b5b600061336085828601612e59565b925050602083013567ffffffffffffffff81111561338157613380612cc6565b5b61338d8582860161310b565b9150509250929050565b6133a081612d50565b81146133ab57600080fd5b50565b6000813590506133bd81613397565b92915050565b600080604083850312156133da576133d9612cc1565b5b60006133e885828601612f0e565b92505060206133f9858286016133ae565b9150509250929050565b6000806000806080858703121561341d5761341c612cc1565b5b600061342b87828801612f0e565b945050602061343c87828801612f0e565b935050604061344d87828801612e59565b925050606085013567ffffffffffffffff81111561346e5761346d612cc6565b5b61347a8782880161310b565b91505092959194509250565b6000806040838503121561349d5761349c612cc1565b5b60006134ab85828601612f0e565b92505060206134bc85828601612f0e565b9150509250929050565b7f4e487b7100000000000000000000000000000000000000000000000000000000600052602260045260246000fd5b6000600282049050600182168061350d57607f821691505b6020821081036135205761351f6134c6565b5b50919050565b7f4552433732313a20617070726f76616c20746f2063757272656e74206f776e6560008201527f7200000000000000000000000000000000000000000000000000000000000000602082015250565b6000613582602183612d91565b915061358d82613526565b604082019050919050565b600060208201905081810360008301526135b181613575565b9050919050565b7f4552433732313a20617070726f76652063616c6c6572206973206e6f7420746f60008201527f6b656e206f776e6572206f7220617070726f76656420666f7220616c6c000000602082015250565b6000613614603d83612d91565b915061361f826135b8565b604082019050919050565b6000602082019050818103600083015261364381613607565b9050919050565b7f546f6b656e20616c7265616479206d696e746564000000000000000000000000600082015250565b6000613680601483612d91565b915061368b8261364a565b602082019050919050565b600060208201905081810360008301526136af81613673565b9050919050565b6000815190506136c581612e42565b92915050565b6000602082840312156136e1576136e0612cc1565b5b60006136ef848285016136b6565b91505092915050565b7f4e6f7420656e6f75676820746f6b656e7320746f204d494e5400000000000000600082015250565b600061372e601983612d91565b9150613739826136f8565b602082019050919050565b6000602082019050818103600083015261375d81613721565b9050919050565b6000819050919050565b6000819050919050565b600061379361378e61378984613764565b61376e565b612e38565b9050919050565b6137a381613778565b82525050565b60006040820190506137be6000830185612ecd565b6137cb602083018461379a565b9392505050565b6000815190506137e181613397565b92915050565b6000602082840312156137fd576137fc612cc1565b5b600061380b848285016137d2565b91505092915050565b60008190508160005260206000209050919050565b60006020601f8301049050919050565b600082821b905092915050565b6000600883026138767fffffffffffffffffffffffffffffffffffffffffffffffffffffffffffffffff82613839565b6138808683613839565b95508019841693508086168417925050509392505050565b60006138b36138ae6138a984612e38565b61376e565b612e38565b9050919050565b6000819050919050565b6138cd83613898565b6138e16138d9826138ba565b848454613846565b825550505050565b600090565b6138f66138e9565b6139018184846138c4565b505050565b5b818110156139255761391a6000826138ee565b600181019050613907565b5050565b601f82111561396a5761393b81613814565b61394484613829565b81016020851015613953578190505b61396761395f85613829565b830182613906565b50505b505050565b600082821c905092915050565b600061398d6000198460080261396f565b1980831691505092915050565b60006139a6838361397c565b9150826002028217905092915050565b6139bf82612d86565b67ffffffffffffffff8111156139d8576139d7612f6d565b5b6139e282546134f5565b6139ed828285613929565b600060209050601f831160018114613a205760008415613a0e578287015190505b613a18858261399a565b865550613a80565b601f198416613a2e86613814565b60005b82811015613a5657848901518255600182019150602085019450602081019050613a31565b86831015613a735784890151613a6f601f89168261397c565b8355505b6001600288020188555050505b505050505050565b7f4552433732313a2063616c6c6572206973206e6f7420746f6b656e206f776e6560008201527f72206f7220617070726f76656400000000000000000000000000000000000000602082015250565b6000613ae4602d83612d91565b9150613aef82613a88565b604082019050919050565b60006020820190508181036000830152613b1381613ad7565b9050919050565b7f416363657373436f6e74726f6c3a2063616e206f6e6c792072656e6f756e636560008201527f20726f6c657320666f722073656c660000000000000000000000000000000000602082015250565b6000613b76602f83612d91565b9150613b8182613b1a565b604082019050919050565b60006020820190508181036000830152613ba581613b69565b9050919050565b7f496e76616c696420746f6b656e00000000000000000000000000000000000000600082015250565b6000613be2600d83612d91565b9150613bed82613bac565b602082019050919050565b60006020820190508181036000830152613c1181613bd5565b9050919050565b7f43616e2774206c696b65206f776e20636f6e74656e7400000000000000000000600082015250565b6000613c4e601683612d91565b9150613c5982613c18565b602082019050919050565b60006020820190508181036000830152613c7d81613c41565b9050919050565b7f4e6f7420656e6f75676820746f6b656e7320746f20676976652061206c696b65600082015250565b6000613cba602083612d91565b9150613cc582613c84565b602082019050919050565b60006020820190508181036000830152613ce981613cad565b9050919050565b7f4552433732313a20696e76616c696420746f6b656e2049440000000000000000600082015250565b6000613d26601883612d91565b9150613d3182613cf0565b602082019050919050565b60006020820190508181036000830152613d5581613d19565b9050919050565b7f4552433732313a2061646472657373207a65726f206973206e6f74206120766160008201527f6c6964206f776e65720000000000000000000000000000000000000000000000602082015250565b6000613db8602983612d91565b9150613dc382613d5c565b604082019050919050565b60006020820190508181036000830152613de781613dab565b9050919050565b7f546f6b656e20494420616c726561647920657869737473000000000000000000600082015250565b6000613e24601783612d91565b9150613e2f82613dee565b602082019050919050565b60006020820190508181036000830152613e5381613e17565b9050919050565b6000819050919050565b613e75613e7082612e38565b613e5a565b82525050565b6000613e878284613e64565b60208201915081905092915050565b600081905092915050565b6000613eac82612d86565b613eb68185613e96565b9350613ec6818560208601612da2565b80840191505092915050565b6000613ede8285613ea1565b9150613eea8284613ea1565b91508190509392505050565b7f4552433732313a206d696e7420746f20746865207a65726f2061646472657373600082015250565b6000613f2c602083612d91565b9150613f3782613ef6565b602082019050919050565b60006020820190508181036000830152613f5b81613f1f565b9050919050565b7f4552433732313a20746f6b656e20616c7265616479206d696e74656400000000600082015250565b6000613f98601c83612d91565b9150613fa382613f62565b602082019050919050565b60006020820190508181036000830152613fc781613f8b565b9050919050565b7f4552433732313a207472616e736665722066726f6d20696e636f72726563742060008201527f6f776e6572000000000000000000000000000000000000000000000000000000602082015250565b600061402a602583612d91565b915061403582613fce565b604082019050919050565b600060208201905081810360008301526140598161401d565b9050919050565b7f4552433732313a207472616e7366657220746f20746865207a65726f2061646460008201527f7265737300000000000000000000000000000000000000000000000000000000602082015250565b60006140bc602483612d91565b91506140c782614060565b604082019050919050565b600060208201905081810360008301526140eb816140af565b9050919050565b7f19457468657265756d205369676e6564204d6573736167653a0a333200000000600082015250565b6000614128601c83613e96565b9150614133826140f2565b601c82019050919050565b6000819050919050565b61415961415482613217565b61413e565b82525050565b600061416a8261411b565b91506141768284614148565b60208201915081905092915050565b7f4552433732313a20617070726f766520746f2063616c6c657200000000000000600082015250565b60006141bb601983612d91565b91506141c682614185565b602082019050919050565b600060208201905081810360008301526141ea816141ae565b9050919050565b7f4552433732313a207472616e7366657220746f206e6f6e20455243373231526560008201527f63656976657220696d706c656d656e7465720000000000000000000000000000602082015250565b600061424d603283612d91565b9150614258826141f1565b604082019050919050565b6000602082019050818103600083015261427c81614240565b9050919050565b7f4e487b7100000000000000000000000000000000000000000000000000000000600052601260045260246000fd5b7f416363657373436f6e74726f6c3a206163636f756e7420000000000000000000600082015250565b60006142e8601783613e96565b91506142f3826142b2565b601782019050919050565b7f206973206d697373696e6720726f6c6520000000000000000000000000000000600082015250565b6000614334601183613e96565b915061433f826142fe565b601182019050919050565b6000614355826142db565b91506143618285613ea1565b915061436c82614327565b91506143788284613ea1565b91508190509392505050565b7f4e487b7100000000000000000000000000000000000000000000000000000000600052602160045260246000fd5b7f45434453413a20696e76616c6964207369676e61747572650000000000000000600082015250565b60006143e9601883612d91565b91506143f4826143b3565b602082019050919050565b60006020820190508181036000830152614418816143dc565b9050919050565b7f45434453413a20696e76616c6964207369676e6174757265206c656e67746800600082015250565b6000614455601f83612d91565b91506144608261441f565b602082019050919050565b6000602082019050818103600083015261448481614448565b9050919050565b7f45434453413a20696e76616c6964207369676e6174757265202773272076616c60008201527f7565000000000000000000000000000000000000000000000000000000000000602082015250565b60006144e7602283612d91565b91506144f28261448b565b604082019050919050565b60006020820190508181036000830152614516816144da565b9050919050565b600081519050919050565b600082825260208201905092915050565b60006145448261451d565b61454e8185614528565b935061455e818560208601612da2565b61456781612dcc565b840191505092915050565b60006080820190506145876000830187612ecd565b6145946020830186612ecd565b6145a16040830185613311565b81810360608301526145b38184614539565b905095945050505050565b6000815190506145cd81612cf7565b92915050565b6000602082840312156145e9576145e8612cc1565b5b60006145f7848285016145be565b91505092915050565b7f4e487b7100000000000000000000000000000000000000000000000000000000600052601160045260246000fd5b600061463a82612e38565b915061464583612e38565b925082820261465381612e38565b9150828204841483151761466a57614669614600565b5b5092915050565b600061467c82612e38565b915061468783612e38565b925082820190508082111561469f5761469e614600565b5b92915050565b7f4e487b7100000000000000000000000000000000000000000000000000000000600052603260045260246000fd5b60006146df82612e38565b9150600082036146f2576146f1614600565b5b600182039050919050565b7f537472696e67733a20686578206c656e67746820696e73756666696369656e74600082015250565b6000614733602083612d91565b915061473e826146fd565b602082019050919050565b6000602082019050818103600083015261476281614726565b9050919050565b600060ff82169050919050565b61477f81614769565b82525050565b600060808201905061479a600083018761327a565b6147a76020830186614776565b6147b4604083018561327a565b6147c1606083018461327a565b9594505050505056fea26469706673582212206e720291000f37bd910024fe22c7c17644702f3c5d8c3855aae531bcd7a0b53f64736f6c63430008130033",
  "immutableReferences": {},
  "source": "// SPDX-License-Identifier: MIT\npragma solidity ^0.8.9;\n\nimport \"../node_modules/@openzeppelin/contracts/token/ERC721/ERC721.sol\";\nimport \"../node_modules/@openzeppelin/contracts/token/ERC721/extensions/ERC721Burnable.sol\";\nimport \"../node_modules/@openzeppelin/contracts/access/AccessControl.sol\";\nimport \"../node_modules/@openzeppelin/contracts/utils/cryptography/ECDSA.sol\";\nimport \"./PurpleButterflyToken.sol\";\n\n/// @custom:security-contact laviniascmelo@gmail.com\ncontract PurpleButterfly is ERC721, ERC721Burnable, AccessControl {\n    bytes32 public constant MINTER_ROLE = keccak256(\"MINTER_ROLE\");\n    bytes32 public constant BURNER_ROLE = keccak256(\"BURNER_ROLE\");\n    using ECDSA for bytes32;\n\n    PurpleButterflyToken private _pbftk;\n\n    constructor() ERC721(\"PurpleButterfly\", \"PBFLY\") {\n        _grantRole(DEFAULT_ADMIN_ROLE, msg.sender);\n        _grantRole(MINTER_ROLE, msg.sender);\n        _grantRole(BURNER_ROLE, msg.sender);\n    }\n\n    function getTokenAddress() public view returns (address) {\n        return address(_pbftk);\n    }\n\n    function setTokenAddress(\n        address tokenAddress\n    ) public onlyRole(DEFAULT_ADMIN_ROLE) {\n        _pbftk = PurpleButterflyToken(tokenAddress);\n    }\n\n    mapping(uint256 => Post) private posts;\n    mapping(uint256 => Comment) private comments;\n\n    struct Post {\n        string content;\n        address author;\n    }\n\n    struct Comment {\n        string content;\n        address author;\n        uint256 postId;\n    }\n\n    event PostMinted(uint256 tokenId, address owner, string content);\n    event ContentLiked(uint256 indexed tokenId, address indexed liker);\n\n    function mintPost(\n        string memory content,\n        bytes memory signature,\n        uint256 tokenId\n    ) public payable {\n\n        require(!_exists(tokenId), \"Token already minted\");\n        require(\n            _pbftk.balanceOf(_msgSender()) >= 1 ether,\n            \"Not enough tokens to MINT\"\n        );\n        verifySignature(tokenId, signature);\n        \n\n        _mint(msg.sender, tokenId);\n        _pbftk.transfer(msg.sender, 1 ether);\n\n        posts[tokenId] = Post(content, _msgSender());\n    }\n\n    function verifySignature(\n        uint256 tokenId,\n        bytes memory signature\n    ) public view returns (bool) {\n        \n\n        require(!_exists(tokenId), \"Token ID already exists\");\n\n        address owner = address(this);\n\n        bytes32 messageHash = keccak256(abi.encodePacked(tokenId));\n        address signer = messageHash.toEthSignedMessageHash().recover(\n            signature\n        );\n\n        return signer == owner;\n    }\n\n    function likeContent(uint256 tokenId) public {\n        require(_exists(tokenId), \"Invalid token\");\n        require(_msgSender() != ownerOf(tokenId), \"Can't like own content\");\n        require(\n            _pbftk.balanceOf(_msgSender()) > 0,\n            \"Not enough tokens to give a like\"\n        );\n\n        address contentOwner = ownerOf(tokenId);\n        _pbftk.transfer(contentOwner, 1 ether);\n\n        emit ContentLiked(tokenId, _msgSender());\n    }\n\n    // The following functions are overrides required by Solidity.\n    function supportsInterface(\n        bytes4 interfaceId\n    ) public view override(ERC721, AccessControl) returns (bool) {\n        return super.supportsInterface(interfaceId);\n    }\n}\n",
  "sourcePath": "/Users/laviniamelo/Projects/purple-butterfly/contract-service/contracts/PurpleButterfly.sol",
  "compiler": {
    "name": "solc",
    "version": "0.8.19+commit.7dd6d404.Emscripten.clang"
  },
  "schemaVersion": "3.4.13",
  "updatedAt": "2023-04-09T22:32:37.193Z",
  "networkType": "ethereum",
  "devdoc": {
    "custom:security-contact": "laviniascmelo@gmail.com",
    "events": {
      "Approval(address,address,uint256)": {
        "details": "Emitted when `owner` enables `approved` to manage the `tokenId` token."
      },
      "ApprovalForAll(address,address,bool)": {
        "details": "Emitted when `owner` enables or disables (`approved`) `operator` to manage all of its assets."
      },
      "RoleAdminChanged(bytes32,bytes32,bytes32)": {
        "details": "Emitted when `newAdminRole` is set as ``role``'s admin role, replacing `previousAdminRole` `DEFAULT_ADMIN_ROLE` is the starting admin for all roles, despite {RoleAdminChanged} not being emitted signaling this. _Available since v3.1._"
      },
      "RoleGranted(bytes32,address,address)": {
        "details": "Emitted when `account` is granted `role`. `sender` is the account that originated the contract call, an admin role bearer except when using {AccessControl-_setupRole}."
      },
      "RoleRevoked(bytes32,address,address)": {
        "details": "Emitted when `account` is revoked `role`. `sender` is the account that originated the contract call:   - if using `revokeRole`, it is the admin role bearer   - if using `renounceRole`, it is the role bearer (i.e. `account`)"
      },
      "Transfer(address,address,uint256)": {
        "details": "Emitted when `tokenId` token is transferred from `from` to `to`."
      }
    },
    "kind": "dev",
    "methods": {
      "approve(address,uint256)": {
        "details": "See {IERC721-approve}."
      },
      "balanceOf(address)": {
        "details": "See {IERC721-balanceOf}."
      },
      "burn(uint256)": {
        "details": "Burns `tokenId`. See {ERC721-_burn}. Requirements: - The caller must own `tokenId` or be an approved operator."
      },
      "getApproved(uint256)": {
        "details": "See {IERC721-getApproved}."
      },
      "getRoleAdmin(bytes32)": {
        "details": "Returns the admin role that controls `role`. See {grantRole} and {revokeRole}. To change a role's admin, use {_setRoleAdmin}."
      },
      "grantRole(bytes32,address)": {
        "details": "Grants `role` to `account`. If `account` had not been already granted `role`, emits a {RoleGranted} event. Requirements: - the caller must have ``role``'s admin role. May emit a {RoleGranted} event."
      },
      "hasRole(bytes32,address)": {
        "details": "Returns `true` if `account` has been granted `role`."
      },
      "isApprovedForAll(address,address)": {
        "details": "See {IERC721-isApprovedForAll}."
      },
      "name()": {
        "details": "See {IERC721Metadata-name}."
      },
      "ownerOf(uint256)": {
        "details": "See {IERC721-ownerOf}."
      },
      "renounceRole(bytes32,address)": {
        "details": "Revokes `role` from the calling account. Roles are often managed via {grantRole} and {revokeRole}: this function's purpose is to provide a mechanism for accounts to lose their privileges if they are compromised (such as when a trusted device is misplaced). If the calling account had been revoked `role`, emits a {RoleRevoked} event. Requirements: - the caller must be `account`. May emit a {RoleRevoked} event."
      },
      "revokeRole(bytes32,address)": {
        "details": "Revokes `role` from `account`. If `account` had been granted `role`, emits a {RoleRevoked} event. Requirements: - the caller must have ``role``'s admin role. May emit a {RoleRevoked} event."
      },
      "safeTransferFrom(address,address,uint256)": {
        "details": "See {IERC721-safeTransferFrom}."
      },
      "safeTransferFrom(address,address,uint256,bytes)": {
        "details": "See {IERC721-safeTransferFrom}."
      },
      "setApprovalForAll(address,bool)": {
        "details": "See {IERC721-setApprovalForAll}."
      },
      "symbol()": {
        "details": "See {IERC721Metadata-symbol}."
      },
      "tokenURI(uint256)": {
        "details": "See {IERC721Metadata-tokenURI}."
      },
      "transferFrom(address,address,uint256)": {
        "details": "See {IERC721-transferFrom}."
      }
    },
    "version": 1
  },
  "userdoc": {
    "kind": "user",
    "methods": {},
    "version": 1
  }
}